:030000000207A054
:0C07A000787FE4F6D8FD7581570207E76A
:0C0A1D00013600013B00012200012A000C
:100AAB00538EFB75D71875D6FC438E1043AF04D20B
:020ABB00AF2268
:07093E00E533C39464402C73
:100945001209098F0F8E0E8D0D8C0C7F007E407D58
:100955001C7C46AB0FAA0EA90DA80C12034D120460
:0C096500918F2E8E2D8D2C8C2BE4F53301
:010971002263
:100003007F81120972EFC4540F75F00AA4FFC00771
:100013007F81120972EF540FFED0E02EF5217F830A
:10002300120972EFC4540F75F00AA4FFC0077F834F
:10003300120972EF540FFED0E02EF5257F851209C9
:1000430072EFC4540F75F00AA4FFC0077F8512092D
:0B00530072EF540FFED0E02EF53022BB
:100A5300E521700BD20075A0A0758050F5A022751A
:080A6300A0A0E4F580F5A0223B
:10006600E5367054E53075F00A84243EF8E6F54826
:10007600E53075F00A84743E25F0F8E6F549754AD0
:1000860040E52575F00A84243EF8E6F54BE525752E
:10009600F00A84743E25F0F8E6F54C754D40E521EE
:1000A60075F00A84243EF8E6F54EE52175F00A84DB
:1000B600743E25F0F8E6F54FE5366401600302016B
:1000C600DEE5296401703BC3E53A94E8E5396480CE
:1000D60094834007B202E4F539F53A20021AE53571
:1000E60075F00A84243EF8E6F548E53575F00A848D
:1000F600743E25F0F8E6F549300221E4F548F54965
:10010600801AE53575F00A84243EF8E6F548E535AB
:1001160075F00A84743E25F0F8E6F549754A40E51F
:10012600296402703BC3E53A94E8E5396480948318
:100136004007B202E4F539F53A20021AE52675F0D1
:100146000A84243EF8E6F54BE52675F00A84743EEB
:1001560025F0F8E6F54C300221E4F54BF54C801A13
:10016600E52675F00A84243EF8E6F54BE52675F09B
:100176000A84743E25F0F8E6F54C754D40E5296491
:1001860003703BC3E53A94E8E539648094834007FD
:10019600B202E4F539F53A20021AE52475F00A842C
:1001A600243EF8E6F54EE52475F00A84743E25F003
:1001B600F8E6F54F300221E4F54EF54F801AE524B6
:1001C60075F00A84243EF8E6F54EE52475F00A84B7
:1001D600743E25F0F8E6F54FE53664026003020248
:1001E600FEE5376401703BC3E53A94E8E53964807F
:1001F60094834007B202E4F539F53A20021AE52A5B
:1002060075F00A84243EF8E6F548E52A75F00A8476
:10021600743E25F0F8E6F549300221E4F548F54943
:10022600801AE52A75F00A84243EF8E6F548E52AA0
:1002360075F00A84743E25F0F8E6F549754A40E5FE
:10024600376402703BC3E53A94E8E53964809483E9
:100256004007B202E4F539F53A20021AE52275F0B4
:100266000A84243EF8E6F54BE52275F00A84743ECE
:1002760025F0F8E6F54C300221E4F54BF54C801AF2
:10028600E52275F00A84243EF8E6F54BE52275F082
:100296000A84743E25F0F8E6F54C754D40E5376462
:1002A60003703BC3E53A94E8E539648094834007DC
:1002B600B202E4F539F53A20021AE53B75F00A84F4
:1002C600243EF8E6F54EE53B75F00A84743E25F0CB
:1002D600F8E6F54F300221E4F54EF54F801AE53B7E
:1002E60075F00A84243EF8E6F54EE53B75F00A847F
:1002F600743E25F0F8E6F54FE53664037048F54898
:10030600F549F54AF54BF54C7BA07A867901F8AFAD
:100316002EAE2DAD2CAC2B120560743E2FF8E6F5F3
:100326004DE47B107A27F9F8AF2EAE2DAD2CAC2B11
:10033600120560E47B0AFAF9F8120560743E2BF8A0
:07034600E6F54E754F392268
:10060000120AAB120AD875301775253B752137E4ED
:10061000F52AF522F53BAB21AD25AF3012087D124E
:10062000006612000312093EE531C3940A40F0123D
:100630000ABDE4F531E50964817041752307052998
:100640000532E529B4010F8530358525268521241D
:10065000753601753201E529B40203753202E529C8
:10066000B40303753203E529B40411E4F529F53622
:10067000AB24AD26AF3512087DE4F532E50964827E
:10068000702B0537053CE537B40106753602753C1D
:1006900001E537B40203753C02E537B40303753C4A
:1006A00003E537B40407E4F537F536F53CE50964AE
:1006B000847057752305E532B40109E535C39417F5
:1006C00050020535E532B40209E526C3943B5002D9
:1006D0000526E532B40309E524C3943B5002052402
:1006E000E53CB40109E52AC394175002052AE53C0C
:1006F000B40209E522C3943B50020522E53CB40351
:1007000009E53BC3943B5002053BE5096488705BF7
:10071000752306E532B40109E535D394004002158E
:1007200035E532C394004009E526D3940040021514
:1007300026E532C394004009E524D3940040021515
:1007400024E53CB40109E52AD394004002152AE5CA
:100750003CB40209E522D3940040021522E53CB4E2
:100760000309E53BD394004002153BE50870047F84
:100770000180027F00E50970047E0180027E00EEA8
:100780005F6008E536B40303E4F536E509600BC2A3
:100790000075A0807580FFE4F5A0120A5302061FC1
:0300630002082C64
:10082C00C0E0C0F0C083C082C0D075D000C000C092
:10083C0001C002C003C004C005C006C0071209A64F
:10084C0005310533053AE53A7002053905380528B6
:10085C00E52870020527D007D006D005D004D003B8
:10086C00D002D001D000D0D0D082D083D0F0D0E054
:01087C003249
:0D0ACB008D80E5A0541F4FF5A053A01F2201
:070AD8007DAF7FA0020ACBF5
:1008CE007FFF75B0F075C0FF20C4027F7020C2029A
:1008DE007FB020B5027FD020B4027FE075B00FE468
:1008EE00F5C020B30343070720B20343070B20B123
:0A08FE000343070D20B00343070E6B
:0109080022CC
:0D0ABD001208CEEFF4FF65085FF5098F0801
:010ACA002209
:0F0A29000A3E3F065B4F666D7D077F6F013D0004
:1009A600E4FD7FC0120ACB7448253DF8E6F4FD7FCE
:1009B600E0120ACBAF3D7401A807088002C333D802
:1009C600FCFD7FC0120ACB053DE53DB40803E4F506
:0109D6003DE3
:0109D70022FD
:100A9800E4FEC297EF1392A3EFC313FFD2970EBEE3
:020AA80008F054
:010AAA002229
:030A6B0025F0FD76
:100A6E00C29300C29700D29300120A98AF05120AE1
:040A7E0098C2932265
:10097200E4FDC29300C29700D29300120A98E4FFEA
:10098200C297EDC313FD30A303430580D2970FBF77
:1009920008EEC29300C29700D29700C2A300D2A36E
:0309A20000AF059E
:0109A500222F
:10087D00AC07AA05E4FD7F8E120A6EEB75F00A84B3
:10088D00C454F0FFEB75F00A84EF7F80120A6BEA17
:10089D0075F00A84C454F0FFEA75F00A84EF7F8284
:1008AD00120A6BEC75F00A84C454F0FFEC75F00A73
:1008BD0084EF25F0FD7F84120A6E7D807F8E020A03
:0108CD006EBC
:040A82007F057E006E
:100A86007C007D0C120512EF1FAC0670011E4C7027
:020A9600F62246
:0209FF00AB0744
:100A0100E4FAC294EB139294120A82D294EBC313C8
:0C0A1100FB0ABA08ED7F057E00020A8691
:100A3900E4FAC294EBC313FBD294309403430380CA
:090A4900120A820ABA08EBAF039D
:010A52002281
:1009D800C204D2947F0C7E00120A86C2947F507E95
:1009E80000120A86D2947F0A7E00120A86A2949286
:0609F80004120A82A204B1
:0109FE0022D6
:100909001209D87FCC1209FF7F441209FF1209D8B6
:100919007FCC1209FF7FBE1209FF120A39A90712FB
:100929000A39EFAD01FCE4120458E4FBFA79807846
:040939003D12034D1B
:01093D002297
:10034D00EC4D6011E8497017ED33EC3304600DE4AA
:10035D00FCFFFEFD22E933E8330470F80204FD12C0
:10036D0004C858046009E4CC2481500628500902C1
:10037D000507284003020504C0E0EB4A7044B9802C
:10038D0006D0E0FB0204F3EF4E701CBD8008EBFFBE
:10039D00EAFEE9FD80EBE98DF0A4FEE5F0020436FE
:1003AD00E9CDF9EAFEEBFFEF89F0A4FCE5F0CE898B
:1003BD00F0A42EFFE435F0CD89F0A42DFEE435F048
:1003CD008067EF4E7005BD80D780C3EF8BF0A4AC76
:1003DD00F0EE8BF0A42CFCE435F0F8EF8AF0A42CB1
:1003ED00E5F038FCE433CB8DF0A42CFCE5F03BF8C4
:1003FD00EE8AF0A42CFCE5F038F8E433CF89F0A4B4
:10040D002CFCE5F038CF3400CE89F0A42FFFE5F0B9
:10041D003EFEE433C98DF0A42EFEE5F039CD8AF011
:10042D00A42FFFE5F03EFEE43DFD33D0E0FB500789
:10043D000BBB000F020507EC2CFCEF33FFEE33FE78
:06044D00ED33FD0204DFA7
:1004530075F020800E75F010800575F0087D007E24
:10046300007F003392D530D5031205F2EC334010F0
:10047300EF33FFEE33FEED33FDEC33FCD5F0ED222D
:0E048300E5F0247EA2D513CC92E7CDCEFF2269
:10049100EDD2E7CD33EC3392D524814006E4FFFE63
:1004A100FDFC22FCE4CFCECDCC24E0501174FF80C2
:1004B100EDC3CC13CCCD13CDCE13CECF13CF04705F
:0704C100F030D5DE0205F268
:1004C800E9D2E7C933E833F892D5EDD2E7CD33EC7A
:0704D80033FC5002B2D522F3
:1004DF00EC30E7100FBF000C0EBE00080DBD00047E
:1004EF000BEB6014A2D5EB13FCED92E7FD2274FF2A
:1004FF00FCFDFEFF22E480F8A2D574FF13FC7D8083
:03050F00E480EF96
:1007AC00020600E493A3F8E493A34003F68001F25D
:1007BC0008DFF48029E493A3F85407240CC8C3334E
:1007CC00C4540F4420C8834004F456800146F6DF1D
:1007DC00E4800B0102040810204080900A1DE47E86
:1007EC00019360BCA3FF543F30E509541FFEE49312
:1007FC00A360010ECF54C025E060A840B8E493A3D9
:10080C00FAE493A3F8E493A3C8C582C8CAC583CA03
:10081C00F0A3C8C582C8CAC583CADFE9DEE780BEBB
:010A380000BD
:10051200EF8DF0A4A8F0CF8CF0A428CE8DF0A42EFD
:02052200FE22B7
:1005240075F008758200EF2FFFEE33FECD33CDCC8E
:1005340033CCC58233C5829BED9AEC99E582984011
:100544000CF582EE9BFEED9AFDEC99FC0FD5F0D6EE
:10055400E4CEFBE4CDFAE4CCF9A88222B800C1B918
:100564000059BA002DEC8BF084CFCECDFCE5F0CB56
:10057400F97818EF2FFFEE33FEED33FDEC33FCEB8F
:1005840033FB10D703994004EB99FB0FD8E5E4F94A
:10059400FA227818EF2FFFEE33FEED33FDEC33FC37
:1005A400C933C910D7059BE99A4007EC9BFCE99A2B
:1005B400F90FD8E0E4C9FAE4CCFB2275F010EF2F70
:1005C400FFEE33FEED33FDCC33CCC833C810D70770
:1005D4009BEC9AE899400AED9BFDEC9AFCE899F8AB
:0E05E4000FD5F0DAE4CDFBE4CCFAE4C8F9223E
:0E05F200C3E49FFFE49EFEE49DFDE49CFC221A
:00000001FF
