:0300000002057581
:0C057500787FE4F6D8FD75813C0205BCDF
:1007FB00013500013900013C00012F010131FFC11E
:01080B00806C
:10088A00538EFB75D71875D6FC438E1043AF04D22E
:02089A00AF228B
:1007DC00C3E52E94F4E52D648094814011E4F52D4D
:0F07EC00F52E7F43120792EF75F03384F532221A
:1003A3002000030204C7E52F6401703AE53925E014
:1003B3002425F8E6FE08E6FFC3E5239FEE6480F8F4
:1003C300E522648098401FAF337401A807088002B8
:1003D300C333D8FCF4F5310533E533B40803E4F54E
:1003E30033E4F522F523E52F6402703AE53925E07D
:1003F3002425F8E6FE08E6FFC3E5239FEE6480F8B4
:10040300E522648098401FAF337480A807088002F8
:10041300C313D8FCF4F5310533E533B40803E4F52D
:1004230033E4F522F523E52F64037049E53925E02C
:100433002425F8E6FE08E6FFC3E5239FEE6480F873
:10044300E522648098402EAF337401A80708800228
:10045300C333D8FCFFAE337480A806088002C313ED
:10046300D8FC4FF4F5310533E533B40403E4F53335
:10047300E4F522F523E52F64047049E53925E024EA
:1004830025F8E6FE08E6FFC3E5239FEE6480F8E562
:1004930022648098402EAF337410A807088002C3EB
:1004A30033D8FCFFAE337408A806088002C313D800
:1004B300FC4FF4F5310533E533B40403E4F533E4D9
:1004C300F522F523E531FD7C007F807E000208CB19
:10000300E4D39F5008EF940150037521147401C386
:100013009F5008EF940250037521287402C39F5028
:1000230008EF9403500375213C7403C39F5008EFFA
:1000330094055003752150E53875F00A84E5F00402
:10004300F538E52175F00A84FFE538D39F5005E5BF
:1000530031FD80027DFF7C007F807E001208CB2271
:1004D3007F051207BBEFF4700302055C7F0612076A
:1004E300BBEFF460747F011207BBEF7F00FEC00710
:1004F300C006E41207BBEFFDD0E0F525D0E04DF5D3
:10050300267F031207BBEF7F00FEC007C0067F02F2
:100513001207BBEFFDD0E0F527D0E04DF5287F05AE
:100523001207BBEF7F00FEC007C0067F041207BBA4
:10053300EFFDD0E0F529D0E04DF52A7F071207BB88
:10054300EF7F00FEC007C0067F061207BBEFFDD09A
:10055300E0F52BD0E04DF52C22752501752690751D
:100563002701752890752901752A90752B01752C23
:020573009022D4
:10006600E5357065AE25AF267C037DE81206017482
:10007600092FF8E6F513AE25AF267C007D6412063F
:10008600017C007D0A12060174092DF8E6F514AE0E
:1000960025AF267C007D0A1206017C007D0A120629
:1000A6000174092DF8E6F515AE25AF267C007D0A0C
:1000B60012060174092DF8E6F516E4F517F518F59C
:1000C6001974092537F8E6F51AE535640160030267
:1000D6000226E53464017031C3E53B9420E53A64B9
:1000E6008094834007B201E4F53AF53B20010E8582
:1000F60009137409252FF8E6F5148509153001173B
:10010600E4F513F514F515800E8509137409252FEA
:10011600F8E6F514850915E4F516E534640260037E
:100126000201BAC3E53B9420E53A64809483400714
:10013600B201E4F53AF53B20016CE53925E02425CA
:10014600F8E6FA08E6FB7C037DE8FFAE021206013C
:1001560074092FF8E6F5177C007D64AF03AE021232
:1001660006017C007D0A12060174092DF8E6F518D1
:10017600E53925E02425F8E6FA08E6FB7C007D0A49
:10018600FFAE021206017C007D0A12060174092DDB
:10019600F8E6F5197C007D0AAF03AE02120601747B
:1001A600092DF8E6F51A300177E4F517F518F51973
:1001B600F51A806CE53925E02425F8E6FA08E6FB11
:1001C6007C037DE8FFAE0212060174092FF8E6F5FE
:1001D600177C007D64AF03AE021206017C007D0A27
:1001E60012060174092DF8E6F518E53925E02425EF
:1001F600F8E6FA08E6FB7C007D0AFFAE021206016D
:100206007C007D0A12060174092DF8E6F5197C00BA
:100216007D0AAF03AE0212060174092DF8E6F51A3F
:10022600E535B40213E4F513F514F515F516F517CF
:09023600F518850919850E1A223C
:10023F0012089C12088A1204D31200661207DCE51A
:10024F0036C3943240F3E4F5361208BDE51CB48191
:10025F0002B200E51C64827075053CE53CB40103F5
:10026F00753501E53CB40203753401E53CB4030375
:10027F00753402E53C64047055F534F53CF535AD45
:10028F0026FF120854E525FF3395E0AD077F0112D5
:10029F000854AD287F02120854E527FF3395E0ADCF
:1002AF00077F03120854AD2A7F04120854E529FF73
:1002BF003395E0AD077F05120854AD2C7F06120869
:1002CF0054E52BFF3395E0AD077F07120854E53453
:1002DF006401703CE51CB4841B052F0539E4F5332C
:1002EF007DFFFC7F80FE1208CBE52FB40506752F2E
:1002FF0001E4F539E51CB48817E52FD394004010BD
:10030F00152F1539E4F5337DFFFC7F80FE1208CBE6
:10031F00E5346402705FE51C6484702EE53925E0D6
:10032F002425F808746426F618E436F6E53925E036
:10033F002425F8E6FE08E6FFBE050FBFDC0CE53905
:10034F0025E02425F87601087690E51CB48826E58B
:10035F003925E02425F8E6FE08E6D39490EE648074
:10036F0094814011E53925E02425F808749C26F680
:10037F001874FF36F6E51BB48807E53C7003753536
:10038F0002E51B6003020248E53C6003020248F5E8
:04039F0035020248D9
:0300630002068C06
:10068C00C0E0C0F0C083C082C0D075D000C000C034
:10069C0001C002C003C004C005C006C0071206EBAF
:1006AC000536052EE52E7002052D0523E523700277
:1006BC00052205381203A3AF32120003053BE53BBC
:1006CC007002053AD007D006D005D004D003D00272
:0F06DC00D001D000D0D0D082D083D0F0D0E03287
:0D08CB008D80E5A0541F4FF5A053A01F2203
:10089C007DFF7C007F807E001208CB7DAF7FA002A5
:0208AC0008CB77
:0808F0007F3B7E5ADEFEDFFCB7
:0108F80022DD
:10072B007FFF75C0FF75B0F020C4027F7020C2023E
:10073B007FB020B5027FD020B4027FE0E4F5C07516
:10074B00B00F20B30343070720B20343070B20B1BD
:0A075B000343070D20B00343070E0F
:010765002271
:0D08BD0012072BEFF4FF651B5FF51C8F1B6E
:0108CA00220B
:0C080C000A093F065B4F666D7D077F6F99
:1006EB00E4FDFC7FC0FE1208CB74132508F8E6F47A
:1006FB00FDE4F4FC7FE07E001208CB74017E00A8C1
:10070B0008088005C333CE33CED8F9FDAC067FC0C5
:0F071B007E001208CB0508E508B40803E4F508D2
:01072A0022AC
:0408D800D2A07F0526
:0808DC0000AE071FEE70F922C7
:0F08AE00D2A11208D8C2A17F051208DCC2A02275
:0C08E400C2A11208D8D2A17F050208DCD6
:07081900120837AD07D202FF
:10082000C2A0A20292A17F051208DC1208D8C2A0C1
:07083000D2A17F050208DCE4
:080871001208AE7FA012076619
:100879001208D8A2A19202C2A07F051208DCA20226
:01088900224C
:02076600AD07DD
:10076800E4FCC2A07F051208DCED30E704D2A180CA
:1007780002C2A17F051208DCD2A0ED25E0FD7F05AD
:090788001208DC0CBC08DBC2A065
:010791002245
:10083700E4FC1208D8ED25E0FD30A103430501C211
:0C084700A07F051208DC0CBC08E8AF051F
:010853002282
:02079200AB07B3
:100794001208AE7F90120766120879AF031207663B
:1007A4001208791208AE7F911207661208791208AE
:0607B400191208E4AF0574
:0107BA00221C
:10085400AB05AA07120871AF02120766120879AF36
:0D086400031207661208791208E40208F07A
:0207BB00AB078A
:1007BD00120871AF031207661208791208AE7FA1F5
:0E07CD001207661208791208191208E4AF0527
:0107DB0022FB
:1005810002023FE493A3F8E493A34003F68001F24F
:1005910008DFF48029E493A3F85407240CC8C3337B
:1005A100C4540F4420C8834004F456800146F6DF4A
:1005B100E4800B01020408102040809007FBE47ED8
:1005C100019360BCA3FF543F30E509541FFEE4933F
:1005D100A360010ECF54C025E060A840B8E493A306
:1005E100FAE493A3F8E493A3C8C582C8CAC583CA31
:1005F100F0A3C8C582C8CAC583CADFE9DEE780BEE9
:0108180000DF
:10060100C2D5EC30E709B2D5E4C39DFDE49CFCEE14
:1006110030E715B2D5E4C39FFFE49EFE120637C34F
:10062100E49DFDE49CFC800312063730D507C3E44A
:060631009FFFE49EFE2283
:10063700BC000BBE0029EF8DF084FFADF022E4CCA7
:10064700F875F008EF2FFFEE33FEEC33FCEE9DEC70
:10065700984005FCEE9DFE0FD5F0E9E4CEFD22EDB6
:10066700F8F5F0EE8420D21CFEADF075F008EF2F00
:10067700FFED33FD4007985006D5F0F222C398FDF1
:050687000FD5F0EA228E
:00000001FF
