:0300000002032CCC
:0C032C00787FE4F6D8FD7581440203736D
:10062E00013C00042701051E3C0122010238000096
:0F063E00014100C100C102014200013B00C101A6
:10074800438E0475D72075D6D1438E1075AF04D269
:02075800AF22CE
:10048600E5226402705CE541C3940A5028E52375B1
:10049600F064A4FFC3E5399FE5F06480F8E53864AD
:1004A60080984011120586742D2541F8A607E4F5BB
:1004B60038F5390541E541640A7027F541753C0276
:1004C600C3E52694F4E525648094814015B20020A6
:1004D60000047DFE80027DFF7F8012075AE4F52529
:0304E600F52622D6
:1005C600E5226403702DC3E54094E8E53F6480941A
:1005D600834015E542940A500F742D2542F8E6F53E
:1005E6003B0542E4F53FF540E542B40A06E4F54230
:0405F6007522042244
:1003B800E53DC3940A406112053A8F3AE4F53DE5FC
:1003C8003AB4041AE522B40115E4F53C7427253E35
:1003D800F8E6F523053EE53EB40403E4F53EE53AC8
:1003E800B4050BE522B40106753C0175220212041E
:1003F800861205C6E53AB4060FE522B4020A7DFF67
:100408007F8012075A752203E53AB4070BE522B438
:090418000406752201E4F53C2202
:100003007F811205FAEFC4540F75F00AA4FFC007ED
:100013007F811205FAEF540FFED0E02EF5217F8386
:100023001205FAEFC4540F75F00AA4FFC0077F83CB
:100033001205FAEF540FFED0E02EF5247F8512054A
:10004300FAEFC4540F75F00AA4FFC0077F851205A9
:0B005300FAEF540FFED0E02EF537222C
:10024B00E53C701EF513F514F515F516F517751835
:10025B0040E52375F00A842409F8E6F519E5230235
:10026B00031FE53C64017073E54175F00A842409B2
:10027B00F8E6F513E54175F00A84740925F0F8E604
:10028B00F514E52475F00A842409F8E6F516E5243F
:10029B0075F00A84740925F0F8E6F517E52175F079
:1002AB000A842409F8E6F519E52175F00A84740926
:1002BB0025F0F8E6F51AC3E54494E8E54364809429
:1002CB0083405DB20120010875154075184080050B
:1002DB00E4F515F518E4F543F54422E53C640270AA
:1002EB003F751340E54275F00A842409F8E6F514CE
:1002FB00E54275F00A84740925F0F8E6F515E4F586
:10030B0016F517751840E53B75F00A842409F8E6D5
:10031B00F519E53B75F00A84740925F0F8E6F51A32
:01032B0022AF
:1006F1001207487B327D3B7F171204E912024B122D
:0707010003B812000380F5AC
:0300630002042173
:10042100C0E0C0F0C083C082C0D075D000C000C0A1
:1004310001C002C003C004C005C006C007120660A7
:10044100053D0539E53970020538052CE52C7002AA
:10045100052B0526E526700205250544E5447002B5
:1004610005430540E5407002053FD007D006D005A1
:10047100D004D003D002D001D000D0D0D082D0831C
:05048100D0F0D0E032D4
:0D075A008D80E5A0541F4FF5A053A01F2275
:03064D00011F008A
:10053A00E4FF75B00FE51F146012146036240270D0
:10054A003AE5B0640F6034751F01802FE5B0640F7F
:10055A006026751F02E5B0B407027F04E5B0B40B4C
:10056A00027F05E5B0B40D027F06E5B0B40E0C7F3C
:0B057A00078008E5B0B40F03E4F51F94
:010585002253
:0F0650000A093F065B4F666D7D077F6F0108004B
:10066000E4FD7FC012075A74132508F8E6F4FD7FF5
:10067000E012075AAF087401A807088002C333D8F4
:10068000FCFD7FC012075A0508E508B40803E4F52D
:010690000861
:010691002246
:04071F007F057E00D4
:100723007C007D0C12022BEF1FAC0670011E4C7077
:02073300F622AC
:0206B900AB078D
:1006BB00E4FAC294EB13929412071FD294EBC31378
:0C06CB00FB0ABA08ED7F057E0002072341
:1006D700E4FAC294EBC313FBD29430940343038030
:0906E70012071F0ABA08EBAF0369
:0106F00022E7
:10069200C203D2947F0C7E00120723C2947F507E45
:1006A20000120723D2947F0A7E00120723A294929B
:0606B2000312071FA20362
:0106B800221F
:100586001206927FCC1206B97F441206B912069261
:100596007FCC1206B97FBE1206B91206D7A907127A
:1005A60006D7EFAD01FCE4120171E4FBFA7980781D
:0F05B6003D1200668F1E8E1D8D1C8C1B1201AA1C
:0105C5002213
:10073500E4FEC297EF1392A3EFC313FFD2970EBE49
:0207450008F0BA
:01074700228F
:0307080025F0FDDC
:10070B00C29300C29700D29300120735AF051207B0
:04071B0035C293222E
:1005FA00E4FDC29300C29700D29300120735E4FFCC
:10060A00C297EDC313FD30A303430580D2970FBFF2
:10061A0008EEC29300C29700D29700C2A300D2A3E9
:03062A0000AF0519
:01062D0022AA
:1004E900AC07AA05E4FD7F8E12070BEB75F00A84B1
:1004F900C454F0FFEB75F00A84EF7F80120708EA15
:1005090075F00A84C454F0FFEA75F00A84EF7F821B
:10051900120708EC75F00A84C454F0FFEC75F00A70
:1005290084EF25F0FD7F8412070B7D807F8E020703
:010539000BB6
:10006600EC4D6011E8497017ED33EC3304600DE494
:10007600FCFFFEFD22E933E8330470F80202161293
:1000860001E158046009E4CC248150062850090295
:10009600022028400302021DC0E0EB4A7044B980EA
:1000A60006D0E0FB02020CEF4E701CBD8008EBFF91
:1000B600EAFEE9FD80EBE98DF0A4FEE5F002014FD2
:1000C600E9CDF9EAFEEBFFEF89F0A4FCE5F0CE8975
:1000D600F0A42EFFE435F0CD89F0A42DFEE435F032
:1000E6008067EF4E7005BD80D780C3EF8BF0A4AC60
:1000F600F0EE8BF0A42CFCE435F0F8EF8AF0A42C9B
:10010600E5F038FCE433CB8DF0A42CFCE5F03BF8AD
:10011600EE8AF0A42CFCE5F038F8E433CF89F0A49D
:100126002CFCE5F038CF3400CE89F0A42FFFE5F0A3
:100136003EFEE433C98DF0A42EFEE5F039CD8AF0FB
:10014600A42FFFE5F03EFEE43DFD33D0E0FB500773
:100156000BBB000F020220EC2CFCEF33FFEE33FE4C
:06016600ED33FD0201F87B
:10016C0075F020800E75F010800575F0087D007E0E
:10017C00007F003392D530D50312023DEC33401092
:10018C00EF33FFEE33FEED33FDEC33FCD5F0ED2217
:0E019C00E5F0247EA2D513CC92E7CDCEFF2253
:1001AA00EDD2E7CD33EC3392D524814006E4FFFE4D
:1001BA00FDFC22FCE4CFCECDCC24E0501174FF80AC
:1001CA00EDC3CC13CCCD13CDCE13CECF13CF047049
:0701DA00F030D5DE02023D0A
:1001E100E9D2E7C933E833F892D5EDD2E7CD33EC64
:0701F10033FC5002B2D522DD
:1001F800EC30E7100FBF000C0EBE00080DBD000468
:100208000BEB6014A2D5EB13FCED92E7FD2274FF13
:10021800FCFDFEFF22E480F8A2D574FF13FC7D806C
:03022800E480EF80
:100338000206F1E493A3F8E493A34003F68001F2E4
:1003480008DFF48029E493A3F85407240CC8C333C6
:10035800C4540F4420C8834004F456800146F6DF95
:10036800E4800B010204081020408090062EE47EF1
:10037800019360BCA3FF543F30E509541FFEE4938A
:10038800A360010ECF54C025E060A840B8E493A351
:10039800FAE493A3F8E493A3C8C582C8CAC583CA7C
:1003A800F0A3C8C582C8CAC583CADFE9DEE780BE34
:01065F00009A
:10022B00EF8DF0A4A8F0CF8CF0A428CE8DF0A42EE7
:02023B00FE22A1
:0E023D00C3E49FFFE49EFEE49DFDE49CFC22D2
:00000001FF
