:0300000002037A7E
:0C037A00787FE4F6D8FD7581320203C1E3
:0E05CE0001220102240000012901022F000079
:10065500538EFB75D79C75D6FF438E1075AF04D2AC
:02066500AF22C2
:10047500E5296401703EBF0103752114BF020375B0
:10048500211EBF0303752146E52E75F00A84E5F0AC
:1004950004F52EE52175F00A84FFE52EC39F500B68
:1004A5007DFE7F80120667D2B480097DFF7F8012B2
:0D04B5000667C2B4E5297004F52EF521227A
:10062700C3E52B940AE52A64809480400A1204C229
:080637008F28E4F52AF52B22BF
:10057B00E53245317002F529E5324531601D7529AB
:10058B0001C3E52D9410E52C648094A7400DE53252
:0C059B00153270021531E4F52CF52D220C
:1002D60020006775134074092522F8E6F514751594
:1002E60040850916AE31AF327C037DE812023D74BB
:1002F600092FF8E6F517AE31AF327C007D641202A5
:100306003D7C007D0A12023D74092DF8E6F518AE13
:1003160031AF327C007D0A12023D7C007D0A12025A
:100326003D74092DF8E6F519AE31AF327C007D0A31
:1003360012023D74092DF8E6F51A300036751340A1
:1003460074092522F8E6F514751540E4F516F51737
:10035600E52375F00A8475F00A84740925F0F8E639
:10036600F518E52375F00A84740925F0F8E6F51901
:04037600751A392299
:10040600120655C3E5279464E52664809480400867
:1004160012050C1201AA8F231202D6120627120504
:100426007BE528B4040A0522E522B40403752201FB
:10043600E528B40522D3E5259478E52464809480E4
:100446004005E4F524F525743C2525F525E43524F9
:10045600F524F531852532E528B40609E4F531F5AC
:0F04660032F524F525E52864077098B2008094DC
:0300630002000395
:10000300C0E0C0F0C083C082C0D075D000C000C0C3
:1000130001C002C003C004C005C006C007120549E1
:10002300052BE52B7002052A052EAF221204750558
:100033002DE52D7002052C0527E52770020526D036
:1000430007D006D005D004D003D002D001D000D011
:0A005300D0D082D083D0F0D0E0328C
:0D0667008D80E5A0541F4FF5A053A01F2269
:0305DC00011F00FC
:1004C200E5B0540FFFE4FEE51F14601114603124FF
:1004D200027034EF640F602F751F01802AEF640FE2
:1004E2006019BF0E027E07BF0D027E06BF0B027EA1
:1004F20005BF07027E04751F02800CE4F51F80070A
:09050200BF0F04E4F51FFEAF0673
:01050B0022CD
:0F05DF000A093F065B4F666D7D077F6F010800BD
:10054900E4FD7FC012066774132508F8E6F4FD7F01
:10055900E0120667AF087401A807088002C333D800
:10056900FCFD7FCE1206670508E508B40803E4F52B
:010579000879
:01057A00225E
:04063F007F057E00B5
:100643007C007D0C12022BEF1FAC0670011E4C7058
:02065300F6228D
:0205EF00AB0758
:1005F100E4FAC294EB13929412063FD294EBC31324
:0C060100FB0ABA08ED7F057E00020643EC
:10060D00E4FAC294EBC313FBD294309403430380FA
:09061D0012063F0ABA08EBAF0314
:0106260022B1
:1005A700C201D2947F0C7E00120643C2947F507E14
:1005B70000120643D2947F0A7E00120643A2949249
:0605C7000112063FA20133
:0105CD00220B
:10050C001205A77FCC1205EF7F441205EF1205A749
:10051C007FCC1205EF7FBE1205EF12060DA9071254
:10052C00060DEFAD01FCE4120171E4FBFA79807861
:0C053C003D1200668F1E8E1D8D1C8C1B56
:010548002290
:10006600EC4D6011E8497017ED33EC3304600DE494
:10007600FCFFFEFD22E933E8330470F80202161293
:1000860001E158046009E4CC248150062850090295
:10009600022028400302021DC0E0EB4A7044B980EA
:1000A60006D0E0FB02020CEF4E701CBD8008EBFF91
:1000B600EAFEE9FD80EBE98DF0A4FEE5F002014FD2
:1000C600E9CDF9EAFEEBFFEF89F0A4FCE5F0CE8975
:1000D600F0A42EFFE435F0CD89F0A42DFEE435F032
:1000E6008067EF4E7005BD80D780C3EF8BF0A4AC60
:1000F600F0EE8BF0A42CFCE435F0F8EF8AF0A42C9B
:10010600E5F038FCE433CB8DF0A42CFCE5F03BF8AD
:10011600EE8AF0A42CFCE5F038F8E433CF89F0A49D
:100126002CFCE5F038CF3400CE89F0A42FFFE5F0A3
:100136003EFEE433C98DF0A42EFEE5F039CD8AF0FB
:10014600A42FFFE5F03EFEE43DFD33D0E0FB500773
:100156000BBB000F020220EC2CFCEF33FFEE33FE4C
:06016600ED33FD0201F87B
:10016C0075F020800E75F010800575F0087D007E0E
:10017C00007F003392D530D503120273EC3340105C
:10018C00EF33FFEE33FEED33FDEC33FCD5F0ED2217
:0E019C00E5F0247EA2D513CC92E7CDCEFF2253
:1001AA00EDD2E7CD33EC3392D524814006E4FFFE4D
:1001BA00FDFC22FCE4CFCECDCC24E0501174FF80AC
:1001CA00EDC3CC13CCCD13CDCE13CECF13CF047049
:0701DA00F030D5DE020273D4
:1001E100E9D2E7C933E833F892D5EDD2E7CD33EC64
:0701F10033FC5002B2D522DD
:1001F800EC30E7100FBF000C0EBE00080DBD000468
:100208000BEB6014A2D5EB13FCED92E7FD2274FF13
:10021800FCFDFEFF22E480F8A2D574FF13FC7D806C
:03022800E480EF80
:10038600020406E493A3F8E493A34003F68001F283
:1003960008DFF48029E493A3F85407240CC8C33378
:1003A600C4540F4420C8834004F456800146F6DF47
:1003B600E4800B01020408102040809005CEE47E04
:1003C600019360BCA3FF543F30E509541FFEE4933C
:1003D600A360010ECF54C025E060A840B8E493A303
:1003E600FAE493A3F8E493A3C8C582C8CAC583CA2E
:1003F600F0A3C8C582C8CAC583CADFE9DEE780BEE6
:0105EE00000C
:10022B00EF8DF0A4A8F0CF8CF0A428CE8DF0A42EE7
:02023B00FE22A1
:10023D00C2D5EC30E709B2D5E4C39DFDE49CFCEEDC
:10024D0030E715B2D5E4C39FFFE49EFE120281C3D1
:10025D00E49DFDE49CFC800312028130D507C3E4CC
:06026D009FFFE49EFE224B
:0E027300C3E49FFFE49EFEE49DFDE49CFC229C
:10028100BC000BBE0029EF8DF084FFADF022E4CC61
:10029100F875F008EF2FFFEE33FEEC33FCEE9DEC2A
:1002A100984005FCEE9DFE0FD5F0E9E4CEFD22ED70
:1002B100F8F5F0EE8420D21CFEADF075F008EF2FBA
:1002C100FFED33FD4007985006D5F0F222C398FDAB
:0502D1000FD5F0EA2248
:00000001FF
