:0A053900C181012D02C102012CFF57
:1005DC00438E0475D72075D6D1438E1043AF04D209
:0205EC00AF223C
:0B063E00438905E4F58CF58BD28C227B
:10051700C3E52B940AE52A940040161204F1EF75FF
:10052700F064A4FFAEF07C007D331200668E2E8F40
:020537002F2271
:10055900C3E5299464E5286480948040103000053F
:0E056900852F2D8003752D02AF2D1205AD22BA
:1004C900C3E52394E8E52264809483401AE4F52285
:1004D900F523AF8CEFFEAD8AEDFFE48F278E26F56D
:0804E90025F524F58AF58C22AB
:1002AA00D37496952FE4952E500BC3E52F94FAE557
:1002BA002E9400400BC3E52F945EE52E9401400571
:1002CA00532CFB8023C3E52F9496E52E940040150A
:1002DA00D374FA952FE4952E500EC3E52F945EE55C
:1002EA002E94015003432C04AF27AE26AD25AC242F
:1002FA00E47BE87A03F9F8D3120189500BC3E52DA0
:10030A009488748094934015AF27AE26AD25AC240B
:10031A00E47B107A27F9F8D31201895005532CF798
:10032A008038E47FE87E03FDFCAB27AA26A925A82E
:10033A0024C31201894020AF27AE26AD25AC24E4A0
:10034A007B887A13F9F8D3120189500EC3E52D94EC
:10035A0010748094A75003432C08AD2C7F800206AA
:01036A001979
:10019A00300203020298300103020242751271E42E
:1001AA00F513F5147B107A27F9F8AF27AE26AD259B
:1001BA00AC241200F774082FF8E6F515E47BE87A08
:1001CA0003F9F8AF27AE26AD25AC241200F7E47B7D
:1001DA000AFAF9F81200F774082BF8E6F516E47B28
:1001EA0064FAF9F8AF27AE26AD25AC241200F7E47D
:1001FA007B0AFAF9F81200F774082BF8E6F517E407
:10020A007B0AFAF9F8AF27AE26AD25AC241200F71F
:10021A00E47B0AFAF9F81200F774082BF8E6F518E5
:10022A00E47B0AFAF9F8AF27AE26AD25AC24120012
:10023A00F774082BF8E6F51930016475123EE4F5F7
:10024A0013F514A200332408F8E6F515E4F516AE02
:10025A002EAF2FFC7D6412006674082FF8E64480E6
:10026A00F517AE2EAF2F7C007D0A1200667C007D4A
:10027A000A12006674082DF8E6F518AE2EAF2F7C28
:10028A00007D0A12006674082DF8E6F51922E4F5D5
:10029A0012F513F514F515F516F517F518F51922D3
:100432001205FD1205DC12063E12019A1205171270
:1004420005591204C9E530C3940540EDE4F53012B4
:10045200060BE51CB48102B202E51CB48402B200B0
:09046200E51CB488D4B20180D07D
:0300630002000395
:10000300C0E0C0F0C083C082C0D075D000C000C0C3
:1000130001C002C003C004C005C006C00712046BC0
:1000230005300523E52370020522052BE52B70021D
:10003300052A0529E529700205281202AAD007D04E
:1000430006D005D004D003D002D001D000D0D0D048
:0800530082D083D0F0D0E0322E
:0300000002036B8D
:0C036B00787FE4F6D8FD7581300203B203
:0D0619008D80E5A0541F4FF5A053A01F22B7
:0E05FD007DFF7F801206197DAF7FA0020619D8
:080649007F3B7E5ADEFEDFFC60
:010651002286
:06054300011C00011B0079
:1003F7007FFF75B0F075C0FF20C4027F7020C20276
:100407007FB020B5027FD020B4027FE075B00FE443
:10041700F5C020B30343070720B20343070B20B1FE
:0A0427000343070D20B00343070E46
:0104310022A8
:0D060B001203F7EFF4FF651B5FF51C8F1B5A
:0106180022BF
:0F0549000A083F065B4F666D7D077F6F011A0042
:10046B00E4FD7FC01206197412251AF8E6F4FD7F1D
:10047B00E0120619AF1A7401A807088002C333D81B
:10048B00FCFD7FC0120619051AE51AB40803E4F542
:02049B001A2223
:04062600D2A07F05DA
:08062A0000AE071FEE70F9227B
:0F05EE00D2A1120626C2A17F0512062AC2A022A0
:0C063200C2A1120626D2A17F0502062AF2
:1005C500C2A0A20392A17F0512062A120626C2A086
:0705D500D2A17F0502062AF6
:080594001205EE7F9012049D98
:10059C00120626A2A19203C2A07F0512062AA2036C
:0105AC00222C
:02049D00AD07A9
:10049F00E4FCC2A07F0512062AED30E704D2A1804A
:1004AF0002C2A17F0512062AD2A0ED25E0FD7F052D
:0904BF0012062A0CBC08DBC2A0E5
:0104C8002211
:10057700E4FC120626ED25E0FD30A103430501C288
:0C058700A07F0512062A0CBC08E8AF0596
:010593002245
:1004F1001205947F4312049D12059C1205EE7F9113
:1005010012049D12059C120577AD07D2031205C591
:05051100120632AF05E7
:0105160022C2
:1005AD00AB071205947F4012049D12059CAF0312F8
:0805BD00049D12059C020632A8
:10037700020432E493A3F8E493A34003F68001F266
:1003870008DFF48029E493A3F85407240CC8C33387
:10039700C4540F4420C8834004F456800146F6DF56
:1003A700E4800B0102040810204080900539E47EA8
:1003B700019360BCA3FF543F30E509541FFEE4934B
:1003C700A360010ECF54C025E060A840B8E493A312
:1003D700FAE493A3F8E493A3C8C582C8CAC583CA3D
:1003E700F0A3C8C582C8CAC583CADFE9DEE780BEF5
:0105580000A2
:10006600BC000BBE0029EF8DF084FFADF022E4CC7E
:10007600F875F008EF2FFFEE33FEEC33FCEE9DEC47
:10008600984005FCEE9DFE0FD5F0E9E4CEFD22ED8D
:10009600F8F5F0EE8420D21CFEADF075F008EF2FD7
:1000A600FFED33FD4007985006D5F0F222C398FDC8
:0500B6000FD5F0EA2265
:1000BB0075F008758200EF2FFFEE33FECD33CDCCFC
:1000CB0033CCC58233C5829BED9AEC99E58298407F
:1000DB000CF582EE9BFEED9AFDEC99FC0FD5F0D65C
:1000EB00E4CEFBE4CDFAE4CCF9A88222B800C1B986
:1000FB000059BA002DEC8BF084CFCECDFCE5F0CBC4
:10010B00F97818EF2FFFEE33FEED33FDEC33FCEBFC
:10011B0033FB10D703994004EB99FB0FD8E5E4F9B7
:10012B00FA227818EF2FFFEE33FEED33FDEC33FCA4
:10013B00C933C910D7059BE99A4007EC9BFCE99A98
:10014B00F90FD8E0E4C9FAE4CCFB2275F010EF2FDD
:10015B00FFEE33FEED33FDCC33CCC833C810D707DD
:10016B009BEC9AE899400AED9BFDEC9AFCE899F818
:0E017B000FD5F0DAE4CDFBE4CCFAE4C8F922AB
:10018900EB9FF5F0EA9E42F0E99D42F0E89C45F0CC
:010199002243
:00000001FF
