:030000000202C435
:0C02C400787FE4F6D8FD75812F02030B53
:0904F900012B00012A00012F0073
:0C066E00E52AB40506120003E4F52A2278
:10054C00E52C640A70217F411205747F41120574F9
:10055C008F2FE52FC3947D50047DFE80027DFF7F9D
:08056C0080120661E4F52C2267
:10035000E4F514E50A4480F515850F16850A17E5BE
:1003600027B40106852328852429E527700A8525D9
:1003700028852629F523F524AE28AF297C037DE8BE
:1003800012022B740A2FF8E6F518AE28AF297C006C
:100390007D6412022B7C007D0A12022B740A2DF858
:1003A000E64480F519AE28AF297C007D0A12022BA5
:1003B0007C007D0A12022B740A2DF8E6F51AAE288D
:1003C000AF297C007D0A12022B740A2DF8E6F51B7A
:0103D000220A
:1003D10012069212005012066E12035012054CE5DD
:1003E10027B401F2C3E52E9464E52D648094804026
:1003F100E5740A2524F524E43523F523FCAD241204
:100401000171E4FBFAF9783F1200661201AA8E2508
:090411008F26E4F52DF52E80BDC7
:0300630002041A7A
:10041A00C0E0C0F0C083C082C0D075D000C000C0A8
:10042A0001C002C003C004C005C006C007052A05F2
:10043A002C052EE52E7002052D120461D007D00678
:10044A00D005D004D003D002D001D000D0D0D082C1
:07045A00D083D0F0D0E032A6
:10005000538EFB75D71875D6FC438E1043AF04D270
:02006000AF22CD
:0E050200022300000225000001210101220059
:10000300E5B0540FF51EE521146011146036240287
:10001300703AE51E640F603475210122E51E640FFA
:100023006027E51EB40E0A7D107FA01206617527B6
:1000330001E51EB40D0AE4FD7FA0120661E4F52775
:0C00430075210222E51EB40F03E4F52134
:01004F00228E
:0C0510000A0A3F065B4F666D7D077F6F97
:10046100E4FD7FC012066174142509F8E6F4FD7FEE
:10047100E0120661AF097401A807088002C333D8EE
:10048100FCFD7FC01206610509E5097002050864DB
:090491000845087004F508F5099E
:01049A00223F
:09069200E4F58075A0A0F5A0229A
:0D0661008D80E5A0541F4FF5A053A01F226F
:06051C00011C00011D009E
:10049B00E4FF75B0F075C0FF20C4027F0420C202D8
:1004AB007F0820B5027F0C20B4027F1075B00FE4DB
:1004BB00F5C020B0030F0F0F20B1020F0F20B201B8
:0104CB000F21
:0104CC00220D
:1005230012049BE51C14600F14601424027017EF6F
:100533006014751C01800FEF6005751C02F51DEF3B
:080543007004F51CF51DAF1D4D
:01054B00228D
:04067A00D2A07F0586
:08067E0000AE071FEE70F92227
:0F065200D2A112067AC2A17F0512067EC2A02293
:0C068600C2A112067AD2A17F0502067EF6
:0706010012061FAD07D20035
:10060800C2A0A20092A17F0512067E12067AC2A09D
:07061800D2A17F0502067E5E
:05063C00AF031204CD24
:1006410012067AA2A19200C2A07F0512067EA20024
:010651002286
:0204CD00AD0779
:1004CF00E4FCC2A07F0512067EED30E704D2A180C6
:1004DF0002C2A17F0512067ED2A0ED25E0FD7F05A9
:0904EF0012067E0CBC08DBC2A061
:0104F80022E1
:10061F00E4FC12067AED25E0FD30A103430501C28B
:0C062F00A07F0512067E0CBC08E8AF0599
:01063B00229C
:1005BF00AB05AA071206527FA01204CD120641AF57
:1005CF00021204CD12064112063C1206867F050266
:0205DF00067E96
:02059B00AB07AC
:10059D001206527FA01204CD12064112063C12061D
:1005AD00527FA11204CD120641120601120686AF2A
:0105BD000538
:0105BE00221A
:02057400AB07D3
:100576001206521206417F901204CD12064112064F
:100586003C1206527F911204CD1206411206011248
:040596000686AF0521
:01059A00223E
:1005E100AB05AA071206521206417F901204CD12E2
:1005F1000641AF021204CD12064112063C020686E4
:10006600EC4D6011E8497017ED33EC3304600DE494
:10007600FCFFFEFD22E933E8330470F80202161293
:1000860001E158046009E4CC248150062850090295
:10009600022028400302021DC0E0EB4A7044B980EA
:1000A60006D0E0FB02020CEF4E701CBD8008EBFF91
:1000B600EAFEE9FD80EBE98DF0A4FEE5F002014FD2
:1000C600E9CDF9EAFEEBFFEF89F0A4FCE5F0CE8975
:1000D600F0A42EFFE435F0CD89F0A42DFEE435F032
:1000E6008067EF4E7005BD80D780C3EF8BF0A4AC60
:1000F600F0EE8BF0A42CFCE435F0F8EF8AF0A42C9B
:10010600E5F038FCE433CB8DF0A42CFCE5F03BF8AD
:10011600EE8AF0A42CFCE5F038F8E433CF89F0A49D
:100126002CFCE5F038CF3400CE89F0A42FFFE5F0A3
:100136003EFEE433C98DF0A42EFEE5F039CD8AF0FB
:10014600A42FFFE5F03EFEE43DFD33D0E0FB500773
:100156000BBB000F020220EC2CFCEF33FFEE33FE4C
:06016600ED33FD0201F87B
:10016C0075F020800E75F010800575F0087D007E0E
:10017C00007F003392D530D503120261EC3340106E
:10018C00EF33FFEE33FEED33FDEC33FCD5F0ED2217
:0E019C00E5F0247EA2D513CC92E7CDCEFF2253
:1001AA00EDD2E7CD33EC3392D524814006E4FFFE4D
:1001BA00FDFC22FCE4CFCECDCC24E0501174FF80AC
:1001CA00EDC3CC13CCCD13CDCE13CECF13CF047049
:0701DA00F030D5DE020261E6
:1001E100E9D2E7C933E833F892D5EDD2E7CD33EC64
:0701F10033FC5002B2D522DD
:1001F800EC30E7100FBF000C0EBE00080DBD000468
:100208000BEB6014A2D5EB13FCED92E7FD2274FF13
:10021800FCFDFEFF22E480F8A2D574FF13FC7D806C
:03022800E480EF80
:1002D0000203D1E493A3F8E493A34003F68001F270
:1002E00008DFF48029E493A3F85407240CC8C3332F
:1002F000C4540F4420C8834004F456800146F6DFFE
:10030000E4800B01020408102040809004F9E47E90
:10031000019360BCA3FF543F30E509541FFEE493F2
:10032000A360010ECF54C025E060A840B8E493A3B9
:10033000FAE493A3F8E493A3C8C582C8CAC583CAE4
:10034000F0A3C8C582C8CAC583CADFE9DEE780BE9C
:0105220000D8
:10022B00C2D5EC30E709B2D5E4C39DFDE49CFCEEEE
:10023B0030E715B2D5E4C39FFFE49EFE12026FC3F5
:10024B00E49DFDE49CFC800312026F30D507C3E4F0
:06025B009FFFE49EFE225D
:0E026100C3E49FFFE49EFEE49DFDE49CFC22AE
:10026F00BC000BBE0029EF8DF084FFADF022E4CC73
:10027F00F875F008EF2FFFEE33FEEC33FCEE9DEC3C
:10028F00984005FCEE9DFE0FD5F0E9E4CEFD22ED82
:10029F00F8F5F0EE8420D21CFEADF075F008EF2FCC
:1002AF00FFED33FD4007985006D5F0F222C398FDBD
:0502BF000FD5F0EA225A
:00000001FF
