:03000000020507EF
:0C050700787FE4F6D8FD75813B02054EBC
:10066400010D00011B23011A19020E0000C1000133
:020674000C0078
:10005000438E0475D72075D6D1438E1043AF04D29A
:02006000AF22CD
:100066001205CF8F08C3E50A940AE50964809480D7
:1000760050030203211206078F10E508C3951A5094
:1000860039E4F51975A0A0C284C286F5A0C3E50FB0
:100096009420E50E648094835003020150B2003030
:1000A600000975A0807580FEE4F5A020005A75A0B1
:1000B600807580FFE4F5A002014BE51AC395087E22
:1000C6000050047F0180027F00C3EF951B7480F807
:1000D6006E98503675190175A0A0C284C286E4F5E3
:1000E600A0C3E50F9490E50E64809481405CB20055
:1000F60030000975A0807580FEE4F5A02000097522
:10010600A0807580FFE4F5A0803BE51BC3950850F1
:100116003975190275A0A0D284C286E4F5A0C3E59C
:100126000F94C8E50E64809480401FB20030000929
:1001360075A0807580FEE4F5A020000975A0807585
:1001460080FFE4F5A0E4F50EF50FE50D7071752B53
:100156004074212519F8E6F52CE51B75F00A842470
:1001660021F8E6F52DE51B75F00A84742125F0F8D3
:10017600E6F52EE51A75F00A842421F8E6F52FE552
:100186001A75F00A84742125F0F8E6F530E508754D
:10019600F00A842421F8E6F531E50875F00A84743E
:1001A6002125F0F8E6F532E5106408600302031C29
:1001B600E50D70047F0180027F008F0D02031CE5B0
:1001C6000CB40203750C05E50CB40703E4F50C75D5
:1001D60034407421250CF8E6F537E4F538753940D6
:1001E600E51024FCB40C00400302031C90020075C9
:1001F600F003A4C58325F0C58373020224020237E7
:1002060002024A02025D0202700202A40202B60261
:1002160002C80202DA0202E80202FA02030C050C24
:100226007434250CF8A62A7411250CF876090203F5
:100236001C050C7434250CF8A6277411250CF876C9
:100246000602031C050C7434250CF8A6247411252B
:100256000CF8760302031C050C7434250CF8A62151
:100266007411250CF8E4F602031CE50D70047F01F9
:1002760080027F008F0DE51275F00AA42513F51B89
:10028600E51775F00AA42518F51AE51BC3951A504B
:10029600047DFD80027DFF7F801207028078050CB9
:1002A6007434250CF8A6287411250CF87607806698
:1002B600050C7434250CF8A6257411250CF8760463
:1002C6008054050C7434250CF8A6227411250CF8FC
:1002D6007601804285223585223685223A85223B63
:1002E6008034050C7434250CF8A6297411250CF8F5
:1002F60076088022050C7434250CF8A62674112580
:100306000CF876058010050C7434250CF8A62374B9
:0C03160011250CF87602E4F509F50A2226
:08070F0012005012006680FB8D
:0300630002000395
:10000300C0E0C0F0C083C082C0D075D000C000C0C3
:1000130001C002C003C004C005C006C007AF0D1273
:100023000593050AE50A70020509050FE50F70023D
:10003300050ED007D006D005D004D003D002D001DE
:0D004300D000D0D0D082D083D0F0D0E032F9
:0D0702008D80E5A0541F4FF5A053A01F22CD
:10063700E4FF75B0F075C0FF20C4027F0420C2023A
:100647007F0820B5027F0C75B01FE4F5C020B2010A
:0C0657000F20B1020F0F20B0030F0F0F97
:010663002274
:10060700E4FFFE120637E51C14600F14601A24027B
:10061700701BEF6018751C018013EF6006751C02D4
:0F062700FE800AE4F51C8005EF7002F51CAF069B
:0106360022A1
:100676000A213F065B4F666D7D077F6F082B3F3F64
:060686003F3F3F3F3F3FF4
:100593008F1DE4FD7FC0120702E51D7004742B80DC
:1005A3000274342533F8E6F4FD7FE0120702AF331B
:1005B3007401A807088002C333D8FCFD7FC012076B
:0C05C300020533E533B40803E4F53322ED
:0406EC007F057E0008
:1006F0007C007D0C1204E7EF1FAC0670011E4C70ED
:02070000F622DF
:0206B400AB0792
:1006B600E4FAC294EB1392941206ECD294EBC313B1
:0C06C600FB0ABA08ED7F057E000206F07A
:1006D200E4FAC294EBC313FBD29430940343038035
:0906E2001206EC0ABA08EBAF03A2
:0106EB0022EC
:10068D00C201D2947F0C7E001206F0C2947F507E80
:10069D00001206F0D2947F0A7E001206F0A2949208
:0606AD00011206ECA2019F
:0106B3002224
:1005CF0012068D7FCC1206B47F441206B412068D2C
:1005DF007FCC1206B47FBE1206B41206D2A9071240
:1005EF0006D2EFAD01FCE412042DE4FBFA7980781A
:0705FF003D12032212046605
:0106060022D1
:10032200EC4D6011E8497017ED33EC3304600DE4D5
:10033200FCFFFEFD22E933E8330470F80204D21216
:10034200049D58046009E4CC248150062850090217
:1003520004DC2840030204D9C0E0EB4A7044B980AF
:1003620006D0E0FB0204C8EF4E701CBD8008EBFF14
:10037200EAFEE9FD80EBE98DF0A4FEE5F002040B54
:10038200E9CDF9EAFEEBFFEF89F0A4FCE5F0CE89B6
:10039200F0A42EFFE435F0CD89F0A42DFEE435F073
:1003A2008067EF4E7005BD80D780C3EF8BF0A4ACA1
:1003B200F0EE8BF0A42CFCE435F0F8EF8AF0A42CDC
:1003C200E5F038FCE433CB8DF0A42CFCE5F03BF8EF
:1003D200EE8AF0A42CFCE5F038F8E433CF89F0A4DF
:1003E2002CFCE5F038CF3400CE89F0A42FFFE5F0E5
:1003F2003EFEE433C98DF0A42EFEE5F039CD8AF03D
:10040200A42FFFE5F03EFEE43DFD33D0E0FB5007B4
:100412000BBB000F0204DCEC2CFCEF33FFEE33FECF
:06042200ED33FD0204B4FD
:1004280075F020800E75F010800575F0087D007E4F
:10043800007F003392D530D5031204F9EC33401015
:10044800EF33FFEE33FEED33FDEC33FCD5F0ED2258
:0E045800E5F0247EA2D513CC92E7CDCEFF2294
:10046600EDD2E7CD33EC3392D524814006E4FFFE8E
:10047600FDFC22FCE4CFCECDCC24E0501174FF80ED
:10048600EDC3CC13CCCD13CDCE13CECF13CF04708A
:07049600F030D5DE0204F98D
:10049D00E9D2E7C933E833F892D5EDD2E7CD33ECA5
:0704AD0033FC5002B2D5221E
:1004B400EC30E7100FBF000C0EBE00080DBD0004A9
:1004C4000BEB6014A2D5EB13FCED92E7FD2274FF55
:1004D400FCFDFEFF22E480F8A2D574FF13FC7D80AE
:0304E400E480EFC2
:1005130002070FE493A3F8E493A34003F68001F2E8
:1005230008DFF48029E493A3F85407240CC8C333E9
:10053300C4540F4420C8834004F456800146F6DFB8
:10054300E4800B0102040810204080900664E47EDE
:10055300019360BCA3FF543F30E509541FFEE493AD
:10056300A360010ECF54C025E060A840B8E493A374
:10057300FAE493A3F8E493A3C8C582C8CAC583CA9F
:10058300F0A3C8C582C8CAC583CADFE9DEE780BE57
:01068C00006D
:1004E700EF8DF0A4A8F0CF8CF0A428CE8DF0A42E29
:0204F700FE22E3
:0E04F900C3E49FFFE49EFEE49DFDE49CFC2214
:00000001FF
