:0300000002030AEE
:0C030A00787FE4F6D8FD758128020351CD
:1004B9007F83120530EFC4540F75F00AA4FFC007FB
:1004C9007F83120530EF540FFED0E02EF5237F8590
:1004D900120530EFC4540F75F00AA4FFC0077F85D9
:0D04E900120530EF540FFED0E02EF5242256
:100652007F43120590AC07E41201107BE17A7A79AC
:09066200247840120069120144E1
:01066B00226C
:0A03E7008F27A2019203A2009204E6
:1003F10020030D20040A75A0A0C286C284E4F5A0E2
:1004010020030D30040A75A0A0C286D284E4F5A0B1
:1004110030030D20040A75A0A0D286C284E4F5A0A1
:1004210030030D30040A75A0A0D286D284E4F5A071
:0104310022A8
:10000300C200C20175A0807580FFC281D280E4F571
:10001300A0E51D603B1201D31204B912065212036C
:10002300E712047B8F25E525B4070CE51D70047FDB
:100033000180027F008F1DE525B40602B202E52789
:10004300D395284007200204D20180C5C20180C194
:01005300228A
:10027A00E4FF1205B98F28C200C20175A0807580FB
:10028A00FFD281C280E4F5A0E51D70731201D3127A
:10029A0004B91206521203E712047B8F25E525B42E
:1002AA000716AD28E4FF1205DAE51D70047F018008
:1002BA00027F008F1DE4F526E525B40617E52670B2
:1002CA0005752601800EE526B40109E4F526AD2858
:1002DA00FF1205DAE526B40116E525B4050674050C
:1002EA002528F528E525B4040674FB2528F528E514
:1002FA0027D395284004D200808EC200020292229F
:1001D300E526705FE52475F00A84240AF8E6F51431
:1001E300E52475F00A84740A25F0F8E6F515E52888
:1001F30075F06484240AF8E6F516E52875F00A8498
:1002030075F00A84740A25F0F8E6F517E52875F009
:100213000A84740A25F0F8E6F518E4F519E527755C
:10022300F00A8475F00A84740A25F0F8E6F51AE5F5
:10023300278037740A2525F8E6F514740A251DF876
:10024300E6F515E4F516F517F518E52875F0648459
:10025300240AF8E6F519E52875F00A8475F00A848E
:10026300740A25F0F8E6F51AE52875F00A84740A8D
:0702730025F0F8E6F51B225F
:1005F9001206D41206C27B147D1E7F08120396E4EC
:0E060900FF1205B98F2812027A12000380F842
:0300630002043262
:10043200C0E0C0F0C083C08263A201C083C082C09A
:10044200D075D000C000C001C002C003C004C00506
:10045200C006C0071204F6D007D006D005D004D0DB
:1004620003D002D001D000D0D0D082D08363A201C9
:09047200D082D083D0F0D0E0323A
:1006C200438E0475D72075D6D1438E1043AF04D222
:0206D200AF2255
:0C069C000A0A3F065B4F666D7D077F6F0A
:1004F600E4FD7FC01206E274142509F8E6F4FD7FD8
:10050600E01206E2AF097401A807088002C333D8D7
:10051600FCFD7FC01206E20509E5097002050864C4
:090526000845087004F508F50908
:01052F0022A9
:0D06E2008D80E5A0541F4FF5A053A01F22EE
:0E06D400E4FD7FA01206E27DFF7F800206E2B9
:1006AF00E4FEC297EF1392A3EFC313FFD2970EBED0
:0206BF0008F041
:0106C1002216
:0306850025F0FD60
:10068800C29300C29700D293001206AFAF051206BC
:04069800AFC2932238
:10053000E4FDC29300C29700D293001206AFE4FF1D
:10054000C297EDC313FD30A303430580D2970FBFBD
:1005500008EEC29300C29700D29700C2A300D2A3B4
:0305600000AF05E4
:010563002275
:10039600AC07AA05E4FD7F8E120688EB75F00A8489
:1003A600C454F0FFEB75F00A84EF7F80120685EAED
:1003B60075F00A84C454F0FFEA75F00A84EF7F8270
:1003C600120685EC75F00A84C454F0FFEC75F00A49
:1003D60084EF25F0FD7F841206887D807F8E0206DD
:0103E600888E
:0406EF00D2A07F0511
:0806F30000AE071FEE70F922B2
:0F005400D2A11206EFC2A17F051206F3C2A022AD
:0C06FB00C2A11206EFD2A17F050206F397
:07061700120635AD07D20306
:10061E00C2A0A20392A17F051206F31206EFC2A09A
:07062E00D2A17F050206F3D3
:08066C001200547FA012056486
:100674001206EFA2A19203C2A07F051206F3A20301
:010684002253
:02056400AD07E1
:10056600E4FCC2A07F051206F3ED30E704D2A180B9
:1005760002C2A17F051206F3D2A0ED25E0FD7F059C
:090586001206F30CBC08DBC2A054
:01058F002249
:10063500E4FC1206EFED25E0FD30A103430501C200
:0C064500A07F051206F30CBC08E8AF050E
:010651002286
:02059000AB07B7
:100592001200547F90120564120674AF03120564B0
:1005A2001206741200547F91120564120674120628
:0605B200171206FBAF0565
:0105B8002220
:1005DA00AB05AA0712066CAF02120564120674AFC5
:0F05EA00031205641206741206FB7F050206F366
:0205B900AB078E
:1005BB0012066CAF031205641206741200547FA16D
:0E05CB001205641206741206171206FBAF0525
:0105D90022FF
:0606A800011D00011C0011
:10047B00E5B0540FFEE51C14602C14600A240270C6
:10048B002CEE6003751C01EE6019BE0E027F07BED9
:10049B000D027F06BE0B027F05BE07027F04751C93
:0D04AB00018003E4F51CBE0F04E4F51CFF06
:0104B8002221
:100066000201BAEC5D046005E8590470030201B0B0
:1000760012017B580460F6EC4860F2EC7004FDFE59
:10008600FF22C860DB2481C85009C398600250066D
:100096000201B79850CAF582E9294B4A7005AB822E
:1000A6000201A675F0007C1A7880C3EF9BEE9AEDEC
:1000B60099400DC3EF9BFFEE9AFEED99FDE842F0E5
:1000C600DC23ACF0D0E0FFD0E0FED0E0FDAB822038
:1000D600E7101BEB60BAEC2CFCEF33FFEE33FEEDC2
:1000E60033FD020192E803F830E705C0F075F00031
:1000F600EF2FFFEE33FEED33FD40B830E7C280AAA6
:1001060075F020800E75F010800575F0087D007E74
:10011600007F003392D530D5031201C5EC33401071
:10012600EF33FFEE33FEED33FDEC33FCD5F0ED227D
:0E013600E5F0247EA2D513CC92E7CDCEFF22B9
:10014400EDD2E7CD33EC3392D524814006E4FFFEB3
:10015400FDFC22FCE4CFCECDCC24E0501174FF8012
:10016400EDC3CC13CCCD13CDCE13CECF13CF0470AF
:07017400F030D5DE0201C5E9
:10017B00E9D2E7C933E833F892D5EDD2E7CD33ECCA
:07018B0033FC5002B2D52243
:10019200EC30E7100FBF000C0EBE00080DBD0004CE
:1001A2000BEB6014A2D5EB13FCED92E7FD2274FF7A
:1001B200FCFDFEFF22E480F8A2D574FF13FC7D80D3
:0301C200E480EFE7
:100316000205F9E493A3F8E493A34003F68001F2FF
:1003260008DFF48029E493A3F85407240CC8C333E8
:10033600C4540F4420C8834004F456800146F6DFB7
:10034600E4800B010204081020408090069CE47EA5
:10035600019360BCA3FF543F30E509541FFEE493AC
:10036600A360010ECF54C025E060A840B8E493A373
:10037600FAE493A3F8E493A3C8C582C8CAC583CA9E
:10038600F0A3C8C582C8CAC583CADFE9DEE780BE56
:0106AE00004B
:0E01C500C3E49FFFE49EFEE49DFDE49CFC224B
:00000001FF
